:100000000C9434000C943E000C943E000C943E0082
:100010000C943E000C943E000C943E000C943E0068
:100020000C943E000C943E000C943E000C943E0058
:100030000C943E000C943E000C943E000C943E0048
:100040000C943E000C943E000C943E000C943E0038
:100050000C943E000C943E000C943E000C943E0028
:100060000C943E000C943E0011241FBECFEFD8E04C
:10007000DEBFCDBF0E9440000C9473000C940000C2
:1000800080E384B94FEE50E26FED70E184EF91E0D0
:1000900075B920E030E0EFE9FFE03197F1F700C0FB
:1000A00000002F5F3F4F28173907A9F745B955B909
:1000B00020E030E0EFE9FFE03197F1F700C0000009
:1000C0002F5F3F4F28173907A9F765B9C9010A976C
:1000D000F9F6FFEF27EA81E6F15020408040E1F792
:0A00E00000C00000D3CFF894FFCF5A
:00000001FF
