:100000000C9434000C943E000C943E000C943E0082
:100010000C943E000C943E000C943E000C943E0068
:100020000C943E000C943E000C943E000C943E0058
:100030000C943E000C943E000C943E000C943E0048
:100040000C943E000C943E000C943E000C943E0038
:100050000C943E000C943E000C943E000C943E0028
:100060000C943E000C943E0011241FBECFEFD8E04C
:10007000DEBFCDBF0E9440000C945C000C940000D9
:1000800082E084B922E03DEF25B985EC99E0019743
:1000900039F0EFE9FFE03197F1F700C00000F7CF4A
:1000A00035B989EE93E0019779F3EFE9FFE03197F5
:0C00B000F1F700C00000F7CFF894FFCF7C
:00000001FF
